:100000000C9434000C9451000C9451000C94510049
:100010000C9451000C9451000C9451000C9451001C
:100020000C9451000C9451000C9451000C94E40277
:100030000C9451000C9451000C942A040C9451001F
:100040000C9451000C9451000C9451000C945100EC
:100050000C9451000C944F020C9451000C945100DC
:100060000C9451000C94510011241FBECFEFD8E026
:10007000DEBFCDBF11E0A0E0B1E0E0E4F3E102C0FB
:1000800005900D92A631B107D9F721E0A6E1B1E0C4
:1000900001C01D92A633B207E1F70E944B060C94F3
:1000A0009E090C9400004F925F926F927F92AF92E4
:1000B000BF92CF92DF92EF92FF920F931F93CF9355
:1000C000DF93CDB7DEB729013A019B01AC012419BA
:1000D00035094609570989899A89AB89BC89BC01C8
:1000E000CD016A197B098C099D090E945707A80157
:1000F000970124193509460957090E946707CA0163
:10010000B9016A0D7B1D8C1D9D1DDF91CF911F9143
:100110000F91FF90EF90DF90CF90BF90AF907F90C6
:100120006F905F904F900895CF93DF93CDB7DEB778
:1001300028970FB6F894DEBF0FBECDBF48E050E061
:100140006AE070E0CE0101960E94600989819A817F
:1001500090931301809312018B819C8190931101E4
:10016000809310018D819E8190930F0180930E01E9
:100170008F81988590930D0180930C0128960FB67E
:10018000F894DEBF0FBECDBFDF91CF910895CF931E
:10019000DF93CDB7DEB728970FB6F894DEBF0FBE5A
:1001A000CDBF90931301809312017093110160935E
:1001B000100150930F0140930E0130930D012093D5
:1001C0000C019A8389837C836B835E834D8338879C
:1001D0002F8348E050E06AE070E0CE0101960E9473
:1001E000760928960FB6F894DEBF0FBECDBFDF911B
:1001F000CF91089588E290E00C947009BC0188E2E8
:1002000090E00C949809AF92BF92CF92DF92EF9258
:10021000FF920F931F93CF93DF93CDB7DEB766970F
:100220000FB6F894DEBF0FBECDBF6C017901FE01A1
:100230003C968BE0DF011D928A95E9F781EC90E016
:100240009D878C879E85917E9C609E87CF86D88A6D
:10025000698B4B8B5C8BF894CF010E94DC05789402
:10026000A12CB12C10E0A016B10654F5F894CE01E3
:1002700001960E946A058823F1F089819A81823C67
:100280009105C9F42D8130E0322F22278C81282B53
:100290002C153D0581F48E81813069F4E114F1045F
:1002A00081F0498550E0542F44279885492BF70168
:1002B0005183408306C07894FFEFAF1ABF0AD3CFB3
:1002C00080E066960FB6F894DEBF0FBECDBFDF911B
:1002D000CF911F910F91FF90EF90DF90CF90BF9043
:1002E000AF9008950F93482F50E05565062F20E0FA
:1002F00030E061E081E090E00E9403010F910895F9
:1003000090931E0180931D0181E080930501089563
:10031000CF93DF93CDB7DEB72B970FB6F894DEBF40
:100320000FBECDBF80910001853630F083E090E0B4
:1003300090931E0180931D0180911D0190911E01DB
:100340008130910509F140F08230910509F45AC0DD
:10035000039709F46BC07CC080910501882339F0B4
:100360006AE080E00E9472018111109205011092F2
:10037000210180911F0184FF6BC081E090E0909388
:100380001E0180931D013BC080910501882339F037
:100390006AE081E00E947201811110920501809152
:1003A0001F0184FD07C010921E0110921D0181E003
:1003B000809305011092210126E636E646E65FE3CA
:1003C00060910101709102018091030190910401FB
:1003D0000E94CF089B01AC01609117017091180138
:1003E0008091190190911A010E94CA08181684F58B
:1003F00082E090E090931E0180931D0181E0809344
:10040000050126C080910501882339F06AE083E068
:100410000E94720181111092050180911F0184FDDB
:1004200017C010921E0110921D01E8CF6AE080E013
:100430000E94720110922101809116018A3040F4CD
:1004400080910001843620F410921E0110921D014B
:1004500080910001853618F48F5F80930001FE01C2
:1004600031968BE0DF011D928A95E9F786E390E0F3
:100470009A8389839B81917E92609B8380911D01E9
:100480008C83F894CF010E94DC0578942B960FB6EC
:10049000F894DEBF0FBECDBFDF91CF9108951F92BC
:1004A0000F920FB60F9211242F933F934F935F93A8
:1004B0006F937F938F939F93AF93BF93EF93FF932C
:1004C000809133018A3009F06BC080917C008F707D
:1004D000823089F188F48823D9F1813009F057C03E
:1004E000809178009091790090932C0180932B015A
:1004F00080917C00807F4FC0833081F0843009F090
:1005000046C0809178009091790090933201809359
:10051000310180917C00807F83603DC080917800B4
:10052000909179009093300180932F0180917C000D
:10053000807F826030C080917800909179009093A4
:100540002E0180932D0180917C00807F816023C0EB
:1005500080917800909179008F3F910509F0B8F46F
:1005600080912101811113C080911D0190911E0184
:10057000029769F481E08093210180932001109219
:100580001C0110921B016AE087E00E9472018091B9
:100590007C00807F846080937C001092330103C0D4
:1005A0008F5F80933301FF91EF91BF91AF919F9146
:1005B0008F917F916F915F914F913F912F910F900C
:1005C0000FBE0F901F9018951F920F920FB60F92AB
:1005D00011242F923F924F925F926F927F928F924F
:1005E0009F92AF92BF92CF92DF92EF92FF920F93C2
:1005F0001F932F933F934F935F936F937F938F93AB
:100600009F93AF93BF93EF93FF93CF93DF93CDB7B8
:10061000DEB72B97DEBFCDBF0E948801E0901001AE
:10062000F090110180901201909013012401612C2F
:10063000712CA0903101B0903201C501A0E0B0E072
:100640009C01AD012419350946095709AFEFB0E007
:100650000E949507870120E030E0A9019801241944
:100660003509460957090E94670720933501009113
:100670000C0110910D0160900E0170900F0113019B
:10068000412C512CC0902F01D0903001C601A0E028
:10069000B0E09C01AD012219330944095509AFEFBF
:1006A000B0E00E949507980140E050E0221933091C
:1006B000440955090E9467072093340140911401B1
:1006C0005091150120912D0130912E01DA010E94E7
:1006D00086071B012C019AE0559447943794279480
:1006E0009A95D1F720912B0130912C010E94860719
:1006F000AB01BC012AE075956795579547952A95FA
:10070000D1F728E2E20EF11CEA14FB0458F0A81419
:10071000B90440F0085D1F4F0C151D0518F0C614F4
:10072000D70420F4109235011092340180913501E4
:1007300090E02091340130E0F9013A96E817F9078A
:1007400024F00A968217930724F410923501109230
:100750003401FE0131968BE0DF011D928A95E9F7A5
:1007600082E390E09A8389839B81917E9E609B8344
:10077000809135018C83809134018D832E823F825C
:10078000488759872091290130912A01369527956C
:10079000369527952A87F894CF010E94DC05789436
:1007A000809121018823B9F080911D0190911E0153
:1007B000029789F480911B0190911C01813D974023
:1007C00050F080912001882331F06AE083E00E949C
:1007D00072011092200180912101882391F0809173
:1007E0001B0190911C01813D27E0920750F420915C
:1007F0002001222331F08C599F4F90931C0180934C
:100800001B012B960FB6F894DEBF0FBECDBFDF9154
:10081000CF91FF91EF91BF91AF919F918F917F9178
:100820006F915F914F913F912F911F910F91FF9089
:10083000EF90DF90CF90BF90AF909F908F907F9080
:100840006F905F904F903F902F900F900FBE0F9042
:100850001F9018951F920F920FB60F9211242F938D
:100860003F934F935F936F937F938F939F93AF9338
:10087000BF93EF93FF93CF93DF93CDB7DEB72B9763
:10088000DEBFCDBF2091340126958091350186953C
:10089000280F80910A0190910B012A30C8F0422F55
:1008A00050E060E070E09A01AB012A503109410943
:1008B00051096AE0689FD001699FB00D11240E9420
:1008C000A00725EF30E040E050E00E9467071CC021
:1008D000209106013091070146EF4203C001439F7A
:1008E000900D1124609125017091260140912701FE
:1008F00050912801649F9001659F300D749F300DC9
:100900001124821B930B9C0190912101911102C033
:1009100020E030E040EC50E05A8349838B81807EB8
:1009200080618B832C833D831E821F82188681E029
:10093000911101C080E089871A861B86F894CE0148
:1009400001960E94DC0578942B960FB6F894DEBFD2
:100950000FBECDBFDF91CF91FF91EF91BF91AF91CE
:100960009F918F917F916F915F914F913F912F91C7
:100970000F900FBE0F901F9018958EBD0DB407FEFF
:10098000FDCF8EB508951F93CF93DF931F92CDB700
:10099000DEB7182F5D9882E069830E94BD04812F25
:1009A0000E94BD046981862F0E94BD045D9A0F904C
:1009B000DF91CF911F910895CF93C82F5D9883E069
:1009C0000E94BD048C2F0E94BD048FEF0E94BD04C5
:1009D0005D9ACF9108951F93CF93DF9300D0CDB749
:1009E000DEB7182F5D9885E04A8369830E94BD04B5
:1009F000812F0E94BD046981862F0E94BD044A8117
:100A0000842F0E94BD045D9A0F900F90DF91CF91CB
:100A10001F9108955D980E94BD048FEF0E94BD0450
:100A20005D9A08955D9A559A2D982B982C98259A41
:100A3000239A249856985E9A81E58CBD1DBC5D98DA
:100A400080EC0E94BD045D9A85E88A95F1F700006C
:100A50005D9882E00E94BD0488E20E94BD0482E0AD
:100A60000E94BD0480E90E94BD0481E00E94BD0493
:100A700083E00E94BD045D9A89E20E94DC04803913
:100A8000B1F460E08CE00E94C30460E08DE00E945D
:100A9000C30460E680E60E94C30460E680E70E942B
:100AA000C30460E08FE00E94C30481E0089580E009
:100AB000089589B186FB882780F991E089270895F8
:100AC00080EA0E940A05982F947581E0943509F414
:100AD00080E00895DF92EF92FF920F931F93CF93E0
:100AE000DF931F92CDB7DEB78C0180EB0E940A0521
:100AF00089839981892F807496FD05C0998197FF1C
:100B000052C084E901C080E95D980E94BD048FEF66
:100B10000E94BD0428E0829FC0011124F801918346
:100B200080838FEF0E94BD04282F22952695277081
:100B3000F80180819181822B918380838FEF0E94C5
:100B4000BD048FEF0E94BD048FEF0E94BD048F7023
:100B5000D82E282F220FF8019281917E922B92831A
:100B6000298123FB222720F920FB90F992830D5F36
:100B70001F4F78018E2D801B8D1538F48FEF0E944A
:100B8000BD04F70181937F01F5CF5D9A898140E033
:100B900086FF02C061E001C062E08CE20E94EB04CB
:100BA000898187708F5F0F90DF91CF911F910F9197
:100BB000FF90EF90DF900895DF92EF92FF920F93F6
:100BC0001F93CF93DF931F92CDB7DEB77C0180EAEE
:100BD0000E940A058983898182FF08C0898184FF78
:100BE00007C0898186FD4DC014E003C010E001C03C
:100BF00012E05D98812F80640E94BD04F70180811E
:100C0000918123E0969587952A95E1F70E94BD048E
:100C1000F70180818295880F807E0E94BD0480E06C
:100C20000E94BD0480E00E94BD04F7018281082F6C
:100C300006950F7080FF05C0802F80640E94BD0460
:100C400010C0802F0E94BD04F3E0EF0EF11CD12CE8
:100C5000D01639F0F70181917F010E94BD04D39431
:100C6000F7CF5D9AF2E0FA95F1F700C05D981111A7
:100C700001C011E0812F80680E94BD045D9A812F20
:100C800001C080E00F90DF91CF911F910F91FF90F5
:100C9000EF90DF900895CF93DF93CDB7DEB76697DF
:100CA0000FB6F894DEBF0FBECDBF229A8FEA8093B5
:100CB0007A0010927B0084E480937C0080917A001B
:100CC000806480937A0082E084BD95E095BD2EE437
:100CD00027BD80936E0080938000909381002DE06B
:100CE00033E0309389002093880080936F000E9446
:100CF00094000E94FA0090930B0180930A01F894EB
:100D00000E94120581110AC02FEF30E742E0215006
:100D100030404040E1F700C00000F2CF7894ABE0F3
:100D2000FA2E8E010F5F1F4FF894CE010C960E9491
:100D30006A05882309F4B9C08C859D8584339105A3
:100D400009F44BC038F48D329105E9F083339105F5
:100D500031F1ABC0843A910509F45EC0873A910540
:100D600009F487C0C59709F0A0C02F85888990E055
:100D7000982F8827820F911D90930B0180930A0171
:100D80000E94FE0092C0F89498E088E10FB6F894B3
:100D9000A895809360000FBE90936000FFCF2E85D2
:100DA00020FF83C0F8012F2D11922A95E9F79A832D
:100DB00089838B81817E88608B83909131018091C2
:100DC00032019C838D8390912F01809130019E830D
:100DD0008F83C8010E94DC0568C08D892E8930E0B0
:100DE000322F2227280F311D8B894C8950E0542F38
:100DF0004427480F511D89896A8970E0762F66273C
:100E0000680F711DEF85888990E0982F88278E0FD5
:100E1000911D0E94C70049C08889282F220F9989F7
:100E200034E0939FC0011124822B2F85282B9A89AF
:100E300048E0949FF00111242E2B9B8980E1989F1C
:100E4000B0011124262B9C89E0E29E9FA001112471
:100E5000822F842B9D89F0E49F9F90011124282BE1
:100E60009E8930E8939FC0011124822B80931F013B
:100E70001CC0688970E0762F66278F85682B072E47
:100E8000000C880B990B0E943E0820E030E040E205
:100E900051E40E94CA076093170170931801809370
:100EA000190190931A011092000178943DCFDB0153
:100EB0008F939F930E949507BF91AF91A29F800D42
:100EC000911DA39F900DB29F900D11240895052EA2
:100ED00097FB1EF400940E947E0757FD07D00E94E6
:100EE000A80707FC03D04EF40C947E07509540955C
:100EF000309521953F4F4F4F5F4F089590958095C6
:100F0000709561957F4F8F4F9F4F0895A29FB001BD
:100F1000B39FC001A39F700D811D1124911DB29F2D
:100F2000700D811D1124911D08950E948607A59FB3
:100F3000900DB49F900DA49F800D911D11240895D4
:100F4000B7FF0C9495070E949507821B930B089599
:100F5000A1E21A2EAA1BBB1BFD010DC0AA1FBB1FBD
:100F6000EE1FFF1FA217B307E407F50720F0A21B2F
:100F7000B30BE40BF50B661F771F881F991F1A949C
:100F800069F760957095809590959B01AC01BD01C6
:100F9000CF0108950E94DE070C9490080E948908F2
:100FA00058F00E94820840F029F45F3F29F00C9429
:100FB000790851110C94C4080C947F080E94A10870
:100FC00068F39923B1F3552391F3951B550BBB2778
:100FD000AA2762177307840738F09F5F5F4F220FBD
:100FE000331F441FAA1FA9F335D00E2E3AF0E0E8B4
:100FF00032D091505040E695001CCAF72BD0FE2FFE
:1010000029D0660F771F881FBB1F26173707480791
:10101000AB07B0E809F0BB0B802DBF01FF27935849
:101020005F4F3AF09E3F510578F00C9479080C948C
:10103000C4085F3FE4F3983ED4F3869577956795AF
:10104000B795F7959F5FC9F7880F911D969587957E
:1010500097F90895E1E0660F771F881FBB1F62179D
:1010600073078407BA0720F0621B730B840BBA0B5B
:10107000EE1F88F7E0950895E89409C097FB3EF4C9
:1010800090958095709561957F4F8F4F9F4F9923D5
:10109000A9F0F92F96E9BB279395F6958795779553
:1010A0006795B795F111F8CFFAF4BB0F11F460FF13
:1010B0001BC06F5F7F4F8F4F9F4F16C0882311F06B
:1010C00096E911C0772321F09EE8872F762F05C07F
:1010D000662371F096E8862F70E060E02AF09A951A
:1010E000660F771F881FDAF7880F9695879597F90F
:1010F000089597F99F6780E870E060E008959FEF9A
:1011000080EC089500240A9416161706180609069E
:10111000089500240A94121613061406050608956D
:10112000092E0394000C11F4882352F0BB0F40F4F5
:10113000BF2B11F460FF04C06F5F7F4F8F4F9F4F35
:10114000089557FD9058440F551F59F05F3F71F0B7
:101150004795880F97FB991F61F09F3F79F087951E
:101160000895121613061406551FF2CF4695F1DFA7
:1011700008C0161617061806991FF1CF8695710537
:10118000610508940895E894BB2766277727CB016B
:1011900097F908950E943C0908F48FEF08950E9482
:1011A000E2080C9490080E94820838F00E94890896
:1011B00020F0952311F00C9479080C947F081124E9
:1011C0000C94C4080E94A10870F3959FC1F3950F79
:1011D00050E0551F629FF001729FBB27F00DB11DBB
:1011E000639FAA27F00DB11DAA1F649F6627B00D4B
:1011F000A11D661F829F2227B00DA11D621F739F34
:10120000B00DA11D621F839FA00D611D221F749F41
:101210003327A00D611D231F849F600D211D822F88
:10122000762F6A2F11249F5750409AF0F1F08823AF
:101230004AF0EE0FFF1FBB1F661F771F881F9150DC
:101240005040A9F79E3F510580F00C9479080C940A
:10125000C4085F3FE4F3983ED4F38695779567958D
:10126000B795F795E7959F5FC1F7FE2B880F911D06
:101270009695879597F90895990F0008550FAA0B31
:10128000E0E8FEEF16161706E807F907C0F0121699
:101290001306E407F50798F0621B730B840B950B9C
:1012A00039F40A2661F0232B242B252B21F40895F1
:1012B0000A2609F4A140A6958FEF811D811D08958E
:1012C000DC01CB01FC01F999FECF06C0F2BDE1BD06
:1012D000F89A319600B40D9241505040B8F70895F5
:1012E000A8E1B0E042E050E00C946209DC01A40FF8
:1012F000B51F4150504048F0CB01840F951F2E91EF
:101300000E94870941505040D0F70895262FF9993F
:10131000FECF92BD81BDF89A019700B4021639F054
:101320001FBA20BD0FB6F894FA9AF99A0FBE089525
:101330000196272F0E9487090C948609F894FFCF05
:101340006400808443010A000A003200A1015B00AE
:061350005103BD00B80BC3
:00000001FF
