:100000000C9434000C9446000C9446000C9446006A
:100010000C9446000C9446000C9446000C94460048
:100020000C9446000C9446000C9446000C9470010D
:100030000C9446000C9446000C94C2000C944600AC
:100040000C9446000C9446000C9446000C94460018
:100050000C9446000C9489000C9446000C944600C5
:100060000C9446000C94460011241FBECFEFD8E03C
:10007000DEBFCDBF21E0A0E0B1E001C01D92A23102
:10008000B207E1F70E9475030C9452040C9400002F
:100090004F925F926F927F92AF92BF92CF92DF9218
:1000A000EF92FF920F931F93CF93DF93CDB7DEB7FD
:1000B00029013A019B01AC01241935094609570968
:1000C00089899A89AB89BC89BC01CD016A197B09F0
:1000D0008C099D090E94D303A801970124193509B1
:1000E000460957090E94F703CA01B9016A0D7B1D31
:1000F0008C1D9D1DDF91CF911F910F91FF90EF906F
:10010000DF90CF90BF90AF907F906F905F904F90B7
:1001100008951F920F920FB60F9211248F939F9301
:10012000809101018A3021F580917C008F7059F017
:100130008230B1F4809178009091790090930D0114
:1001400080930C010DC0809178009091790090937C
:100150000F0180930E0180917C00807F826003C03C
:1001600080917C00807F80937C001092010103C00D
:100170008F5F809301019F918F910F900FBE0F9021
:100180001F9018951F920F920FB60F9211242F9364
:100190003F934F935F936F937F938F939F93AF930F
:1001A000BF93EF93FF9360910A0170910B016F5F12
:1001B0007F4F70930B0160930A01E0910801F09169
:1001C00009013196F0930901E0930801809106013D
:1001D0009091070101969093070180930601209169
:1001E0000401309105012F5F3F4F309305012093AB
:1001F0000401319B22C04091030141111EC08B308C
:100200009105D8F081E08093030187EB9AE70E9483
:10021000E30340E45FE1649FC001659F900D749F1C
:10022000900D112460EC74E40E94E30360931001CC
:1002300010920B0110920A010AC031990CC0409132
:100240000301442341F00B9730F010920301109208
:10025000070110920601339B23C080910201811196
:100260001FC02B303105E0F081E08093020187EB65
:100270009AE7BF010E94E30320E43FE1629FC001CF
:10028000639F900D729F900D112460EC74E40E94A6
:10029000E3036093110110920901109208010BC051
:1002A00031990DC080910201882349F02B3031052E
:1002B00030F0109202011092050110920401FF919A
:1002C000EF91BF91AF919F918F917F916F915F91CE
:1002D0004F913F912F910F900FBE0F901F90189547
:1002E0001F920F920FB60F921124CF92DF92EF92CE
:1002F000FF922F933F934F935F936F937F938F93CF
:100300009F93AF93BF93EF93FF93CF93DF93CDB7BB
:10031000DEB72B97DEBFCDBFF89420910E01309150
:100320000F01A2E6BCE00E9416046B017C018AE08A
:10033000F594E794D794C7948A95D1F720910C014E
:1003400030910D010E941604AB01BC019AE0759535
:100350006795579547959A95D1F7FE0131968BE0B1
:10036000DF011D928A95E9F78CE190E09A838983F9
:100370009B81917E9C609B83809110018C838091F6
:1003800011018D83CE82DF8248875987CF010E9479
:10039000060378942B960FB6F894DEBF0FBECDBF40
:1003A000DF91CF91FF91EF91BF91AF919F918F918D
:1003B0007F916F915F914F913F912F91FF90EF90BF
:1003C000DF90CF900F900FBE0F901F9018958EBDAD
:1003D0000DB407FEFDCF8EB508951F93CF93DF9325
:1003E0001F92CDB7DEB7182F5D9882E069830E9417
:1003F000E701812F0E94E7016981862F0E94E701B2
:100400005D9A0F90DF91CF911F910895CF93C82FE0
:100410005D9883E00E94E7018C2F0E94E7018FEF37
:100420000E94E7015D9ACF9108951F93CF93DF93C8
:1004300000D0CDB7DEB7182F5D9885E04A83698379
:100440000E94E701812F0E94E7016981862F0E94A7
:10045000E7014A81842F0E94E7015D9A0F900F9077
:10046000DF91CF911F9108955D980E94E7018FEF72
:100470000E94E7015D9A08955D9A559A2D982B98F0
:100480002C98259A239A249856985E9A81E58CBDDB
:100490001DBC5D9880EC0E94E7015D9A85E88A9515
:1004A000F1F700005D9882E00E94E70188E20E9477
:1004B000E70182E00E94E70180E90E94E70181E014
:1004C0000E94E70183E00E94E7015D9A89E20E94B1
:1004D00006028039B1F460E08CE00E94ED0160E03A
:1004E0008DE00E94ED0160E680E60E94ED0160E68D
:1004F00080E70E94ED0160E08FE00E94ED0181E065
:10050000089580E0089589B186FB882780F991E0FD
:100510008927089580EA0E943402982F947581E01B
:10052000943509F480E00895DF92EF92FF920F93E3
:100530001F93CF93DF931F92CDB7DEB78C0180EB73
:100540000E94340289839981892F807496FD05C0A9
:10055000998197FF52C084E901C080E95D980E94AB
:10056000E7018FEF0E94E70128E0829FC00111247C
:10057000F801918380838FEF0E94E701282F229555
:1005800026952770F80180819181822B9183808349
:100590008FEF0E94E7018FEF0E94E7018FEF0E942B
:1005A000E7018F70D82E282F220FF8019281917EBB
:1005B000922B9283298123FB222720F920FB90F99B
:1005C00092830D5F1F4F78018E2D801B8D1538F49F
:1005D0008FEF0E94E701F70181937F01F5CF5D9ACC
:1005E000898140E086FF02C061E001C062E08CE2E8
:1005F0000E941502898187708F5F0F90DF91CF91E4
:100600001F910F91FF90EF90DF900895DF92EF928E
:10061000FF920F931F93CF93DF931F92CDB7DEB757
:100620007C0180EA0E9434028983898182FF08C0AC
:10063000898184FF07C0898186FD4DC014E003C015
:1006400010E001C012E05D98812F80640E94E701F4
:10065000F7018081918123E0969587952A95E1F7AE
:100660000E94E701F70180818295880F807E0E94B9
:10067000E70180E00E94E70180E00E94E701F701C6
:100680008281082F06950F7080FF05C0802F80643F
:100690000E94E70110C0802F0E94E701F3E0EF0EF7
:1006A000F11CD12CD01639F0F70181917F010E9405
:1006B000E701D394F7CF5D9AF2E0FA95F1F700C025
:1006C0005D98111101C011E0812F80680E94E7013F
:1006D0005D9A812F01C080E00F90DF91CF911F9133
:1006E0000F91FF90EF90DF900895CF93DF93CDB7F8
:1006F000DEB72B970FB6F894DEBF0FBECDBF229AA0
:100700008FEA80937A0010927B0080E480937C00D3
:1007100080917A00806480937A0014BC82E085BD69
:100720009DE797BD80936E001092800080938100BA
:1007300020E137E2309389002093880080936F0096
:10074000F8940E943C0281110AC02FEF80E792E0EA
:10075000215080409040E1F700C00000F2CF789433
:100760008BB1817080930001CE0101960E949402AA
:10077000882389F089819A818C36910561F4F894F7
:1007800098E088E10FB6F894A895809360000FBEBA
:1007900090936000FFCF8FE19EE40197F1F700C0D6
:1007A0000000A895E1CFDB018F939F930E94250461
:1007B000BF91AF91A29F800D911DA39F900DB29FFD
:1007C000900D11240895AA1BBB1B51E107C0AA1F5D
:1007D000BB1FA617B70710F0A61BB70B881F991FE2
:1007E0005A95A9F780959095BC01CD010895052EE5
:1007F00097FB1EF400940E940E0457FD07D00E9440
:10080000300407FC03D04EF40C940E045095409530
:10081000309521953F4F4F4F5F4F089590958095AC
:10082000709561957F4F8F4F9F4F0895A29FB001A4
:10083000B39FC001A39F700D811D1124911DB29F14
:10084000700D811D1124911D08950E941604A59F0D
:10085000900DB49F900DA49F800D911D11240895BB
:10086000A1E21A2EAA1BBB1BFD010DC0AA1FBB1FB4
:10087000EE1FFF1FA217B307E407F50720F0A21B26
:10088000B30BE40BF50B661F771F881F991F1A9493
:1008900069F760957095809590959B01AC01BD01BD
:0808A000CF010895F894FFCF89
:00000001FF
